:020000040800F2
:10000000800A002029020008B9150008B11500086F
:10001000B5150008310300080D1B000800000000A2
:10002000000000000000000000000000C11A0008ED
:100030003503000800000000BD150008C51A0008BF
:10004000430200084302000843020008430200087C
:10005000430200084302000843020008430200086C
:10006000430200084302000843020008430200085C
:10007000430200084302000843020008430200084C
:10008000430200084302000843020008430200083C
:10009000430200084302000843020008430200082C
:1000A000430200084302000843020008430200081C
:1000B000430200084302000843020008430200080C
:1000C00043020008430200084302000843020008FC
:1000D000C11500084302000843020008430200085B
:1000E00043020008430200084302000843020008DC
:1000F00043020008430200084302000843020008CC
:1001000000000000000000000000000043020008A2
:1001100043020008430200084302000843020008AB
:10012000430200084302000843020008430200089B
:100130004302000843020008000000000000000025
:1001400043020008430200084302000800000000C8
:10015000000000000000000000000000000000009F
:1001600000000000000000004302000843020008F5
:100170004302000800000000000000000000000032
:10018000000000004302000800F002F800F03CF814
:100190000AA090E8000C82448344AAF10107DA45E2
:1001A00001D100F031F8AFF2090EBAE80F0013F0F8
:1001B000010F18BFFB1A43F001031847281C000069
:1001C000481C0000103A24BF78C878C1FAD85207FA
:1001D00024BF30C830C144BF04680C6070470000C1
:1001E0000023002400250026103A28BF78C1FBD840
:1001F000520728BF30C148BF0B6070471FB501F0E0
:10020000CBFD1FBD10B510BD00F058F81146FFF72B
:10021000F5FF01F07DFC00F076F803B4FFF7F2FF84
:1002200003BC00F07DF800000948804709480047FA
:10023000FEE7FEE7FEE7FEE7FEE7FEE7FEE7FEE796
:10024000FEE7FEE704480549054A064B70470000F3
:10025000C91A00088901000880040020800A0020D3
:1002600080060020800600204FF0000200B51346F3
:1002700094469646203922BFA0E80C50A0E80C50C6
:10028000B1F12001BFF4F7AF090728BFA0E80C5077
:1002900048BF0CC05DF804EB890028BF40F8042B70
:1002A00008BF704748BF20F8022B11F0804F18BFDD
:1002B00000F8012B7047704770477047754600F093
:1002C0002BF8AE4605006946534620F007008546E8
:1002D00018B020B5FFF7B6FFBDE820404FF000068C
:1002E0004FF000074FF000084FF0000BAC46ACE8B1
:1002F000C009ACE8C009ACE8C009ACE8C00921F00D
:1003000007018D46704710B50446AFF300802046C4
:10031000BDE81040FFF781BF004870471000002083
:1003200001491820ABBEFEE726000200704700001E
:10033000FEE700007047000080B590F82110022908
:100340001CD10268D0F834E0D0E90FC31168BEF1C7
:10035000000F21F00E011160116821F00101116000
:100360004FF0010101FA03F1CCF804104FF4807151
:10037000018407D0F047002080BD00BF04218163C5
:10038000012080BD002080BD2DE9F04F84B08E4655
:1003900041F20002C4F60002DEF80040052190425E
:1003A000019008BF0421002C009100F0D780019833
:1003B000002500F138424FEAB223009801270026B9
:1003C0004FF00008042B38BF18460090CDF808E025
:1003D0000EE000BFDEF8004008F1010834FA07F132
:1003E00006F1020607F1010705F1040500F0B680E9
:1003F000A7F1010A012000FA0AF314EA0309E9D07F
:10040000DEF804C00CF0030BABF10104012C17D88B
:100410000198744681680322E468B2409143B44075
:100420002143816041684FEA480E9943CCF30013A1
:1004300003FA0AF30446D043194361600CE000BF9D
:100440000321B140019CC843BBF1030FB64603D161
:10045000B6464FF0030B23E0E168029A014093682F
:10046000BBF1020F03FA0EF341EA0301E16017D179
:100470006FF0030101EA5A01214405F01C040F2327
:10048000D1F820C003FA04FB13692CEA0B0CA3403B
:1004900043EA0C03019C0B62D2F804C00CF0030B7E
:1004A00021680BFA0EF2014011432160DDF808E0EB
:1004B0001CF4403F8ED041F21800C4F202000168E3
:1004C00040F2004C41F0010101600168C4F2010CEE
:1004D00001F00101039103992AF003014FF6084A44
:1004E0006144CFF6FF7A05F00C030F2051F80A2083
:1004F00000FA03F40098A24300FA03F31A4341F808
:100500000A20DCF80810DEF8042041EA090340F272
:100510000C40D40258BF21EA0903CCF80830C4F2D9
:1005200001000168940241EA090358BF21EA090366
:100530000360DCF80410940341EA090358BF21EA80
:100540000903CCF80430DCF80010D20341EA0903B7
:1005500058BF21EA0903CCF800303BE704B0BDE8FE
:10056000F08F00001823002A08BF2823C1507047CD
:1005700040F27C40C2F200000068704790F84120D1
:10058000202A03D190F84020012A01D1022070478F
:10059000242280F841200268136823F001031360CD
:1005A000136823F4805313601368194311601168B2
:1005B00041F001011160202180F84110002180F8F4
:1005C000401008467047000090F84120202A03D1CF
:1005D00090F84020012A01D102207047242280F89F
:1005E00041200268136823F001031360136823F4A9
:1005F000706343EA01211160116841F0010111604B
:10060000202180F84110002180F8401008467047F2
:10061000002804BF0120704710B5044690F841003F
:1006200028B9002084F84000204600F043F8242038
:1006300084F8410094E80910E2680168012A21F079
:100640000101016023F070610161816821F40041C2
:10065000816003D14CF40041816007E04CF4044117
:10066000022A816004BF4FF400614160416804F1D7
:10067000100C41F0007141F400414160C16821F467
:100680000041C1609CE80E10114341EA0321C160A2
:10069000216A41EA0C010160016841F00101016039
:1006A00000202021606484F84110206384F8420017
:1006B00010BD000010B586B0006845F20041C4F2DC
:1006C0000001884202D006B010BD00BF41F2140400
:1006D000C4F20204206801A940F480202060206850
:1006E00000F4802001900198C02001901220029017
:1006F00001200390032004900420059040F2004064
:10070000C4F60000FFF740FEA06840F40010A060AF
:10071000A06800F400100090009806B010BD000022
:1007200040F2000040F27C41C2F20000C2F200013F
:1007300000780A68104408607047000080B542F2F3
:100740000000C4F20200016841F0100101600320C2
:1007500000F084F8002000F005F800F027F80020F1
:1007600080BD000070B540F20006C2F2000640F203
:1007700008013278C2F200014FF47A730968B3FBC2
:10078000F2F20446B1FBF2F1084600F0FBFE0F2C3A
:100790004FF0010508D838B94FF0FF30214600224C
:1007A000002500F02FF87460284670BD82B041F239
:1007B0001800C4F20200016841F001010160016803
:1007C00001F0010101910199416841F080514160BE
:1007D000406800F0805000900098072002B000F0C0
:1007E0003DB80000002848BF704700F01F010122FB
:1007F00002FA01F14EF200124009CEF2000242F874
:100800002010704710B54EF60C5CCEF2000CDCF8F0
:100810000030C3F3022E8EF00704042C28BF0424FA
:10082000BEF103034FF0FF3E0EFA04F438BF00237D
:10083000A14399400EFA03F39A43114300F00F02CB
:10084000043A624409010C3200F16043B0F1FF3F09
:10085000C8BF03F56442117010BD00004EF60C5184
:10086000CEF200010A684FF6FF031A4060F30A2235
:1008700042F0806040F0FD7008607047002804BFBF
:1008800001207047F0B585B0054690F8A90228B957
:10089000002085F8A802284600F04AF8032085F8D1
:1008A000A902286801F028F9696859B300204FF0BF
:1008B000010C0022002300BF02EB820205EBC20400
:1008C00084F828300133DAB2914284F829C084F8E0
:1008D0002B00C4E90E002064EED800200023002283
:1008E00003EB830305EBC30484F868210132D3B220
:1008F000994284F8690184F86B01C4E95E00C4F888
:100900008001EDD805F1080E28689EE81C50D5E955
:1009100007678DE81050CDE9036701F0DFF800208C
:10092000012185F8240085F8A91205B0F0BD00006A
:1009300010B586B0006845F60041C4F20001884257
:1009400002D006B010BD00BF41F21404C4F202048C
:10095000206801A940F400302060206800F40030D5
:10096000019001984FF4C0500190022002900020A5
:100970000390032004900E2005904FF09040FFF765
:1009800003FDA06840F40000A060A06800F400002F
:100990000090009806B010BD2DE9F04182B00446E9
:1009A000807841F23006C007C4F2020656D056F8ED
:1009B000140C10F080580BD156F8140C40F08050F5
:1009C00046F8140C56F8140C00F080500190019871
:1009D00047F20007C4F200073868C00512D438682F
:1009E00040F480703860FFF7C3FD05463868C005E5
:1009F00008D4FFF7BDFD401B6428F7D9032002B0DF
:100A0000BDE8F08156F8100C10F4407015D0616804
:100A100001F44071884210D056F8100C40F2404268
:100A2000C4F24222012320F4407113600023C00766
:100A3000136046F8101C40F0A38056F8100C616853
:100A400020F440700843B8F1000F46F8100C05D1AF
:100A500056F8140C20F0805046F8140C2068C1079A
:100A60001CD1810722D4410728D481062ED48103CA
:100A700034D441063CD4010742D4C10648D4810590
:100A80004ED4010656D4C1055ED4C10466D4800498
:100A90006CD4002002B0BDE8F08100BF3168A268CC
:100AA00021F00301114331608107DCD53168E26830
:100AB00021F44031114331604107D6D531682269B4
:100AC00021F44021114331608106D0D53168E269BB
:100AD00021F01001114331608103CAD556F82C1C56
:100AE000A26B21F48001114346F82C1C4106C2D5AB
:100AF0003168226A21F02001114331600107BCD521
:100B00003168626921F4401111433160C106B6D5E4
:100B10003168A26921F44001114331608105B0D5EB
:100B200056F82C1CE26A21F40001114346F82C1CF3
:100B30000106A8D556F8041C626A21F4F871114325
:100B400046F8041CC105A0D556F8041CA26A21F47D
:100B50007851114346F8041CC10498D53168226BC2
:100B600021F4807111433160800492D53068616B4B
:100B700020F4007008433060002002B0BDE8F0812E
:100B8000FFF7F6FC054641F2883700BF56F8100C17
:100B900080073FF552AFFFF7EBFC401BB8424FF028
:100BA0000300F3D9E9E700002DE9F04381B0002804
:100BB00077D042F20008C4F202080446D8F80000D8
:100BC0000D4600F0070088420CD2D8F8000020F053
:100BD00007002843C8F80000D8F8000000F007001C
:100BE000A8425ED1206841F204098107C4F20209DB
:100BF00007D5D9F80010A26821F0F0011143C9F817
:100C00000010C00744D1D8F8000000F00700A84247
:100C10000CD9D8F8000020F007002843C8F80000DD
:100C2000D8F8000000F00700A8423AD12068410738
:100C300007D5D9F80010E26821F4E0611143C9F842
:100C40000010000708D5D9F80000216920F4605091
:100C500040EAC100C9F80000D9F8002002F00C00F9
:100C6000082841F20020C0F27A0051D141F6C25367
:100C7000C2F38341C0F60003595CD9F82830D2038F
:100C80003CD440F60010C0F23D00484340E000BFB5
:100C9000606802280AD001282AD159F8041C890367
:100CA00008D4012001B0BDE8F08300BF59F8041C4E
:100CB0008901F6D5D9F8001021F003010843C9F8DD
:100CC0000000FFF755FC064641F28837D9F80000CE
:100CD000616800F00C00B0EB810F94D0FFF748FC86
:100CE000801BB842F2D9032001B0BDE8F08300BFF9
:100CF00059F8041C8907D4D5DCE700BF03F00F02C4
:100D000041F6D253C0F600039A5CB0FBF2F04843C0
:100D1000D9F8001041F6B252C1F30311C0F6000237
:100D2000515C40F2080220FA01F140F20400C2F2E4
:100D300000000068C2F200021160FFF713FD0020FE
:100D400001B0BDE8F08300002DE9F04182B0002839
:100D500050D00446007841F20006C007C4F20206F3
:100D60000AD0706800F00C00042840F085803068DC
:100D7000800301D56068E8B3207880071AD57068D1
:100D800010F00C0F09D0706800F00C00082840F03B
:100D9000A5807068C00300F1A1803068800702D58B
:100DA0002069012826D13068616920F0F80040EA06
:100DB000C10030602078000720D42078400735D467
:100DC000E56995B1706800F00C00082840F0C28019
:100DD000012D0FD07068216A00F480328A4209D157
:100DE000616A00F47010884204D1002002B0BDE8AE
:100DF000F08100BF012002B0BDE8F081A0690028A9
:100E000000F094800020C4F242200121C0F8801438
:100E1000FFF7AEFB054600BF706A8007CDD4FFF731
:100E2000A7FB401B0228F7D91CE100BFF06910F0B6
:100E3000805808D1F06940F08050F061F06900F00E
:100E400080500190019847F20007C4F2000738680B
:100E5000C00559D4386840F480703860FFF788FBCB
:100E6000054600BF3868C0054ED4FFF781FB401B24
:100E70006428F7D9F6E000BF706800F00C0008287D
:100E800003D17068C0033FF572AF6068B0F5A02F62
:100E900000F09480B0F5803F00F09480002840F08E
:100EA0009580306820F480303060306820F48020F5
:100EB0003060F06AA16820F00F000843F062FFF78D
:100EC00057FB0546306880037FF556AFFFF750FBB0
:100ED000401B64284FF00300F4D987E720690028FD
:100EE00040F20000C4F2422056D001210160FFF719
:100EF0003FFB0546306880073FF555AFFFF738FBED
:100F0000401B0228F6D9ADE0E068002800F07A80A6
:100F1000052800F09180012800F09280306A20F0CE
:100F200001003062306A20F004008CE00020C4F23E
:100F300042200021C0F88014FFF71AFB054600BFCD
:100F4000706A80077FF539AFFFF712FB401B02285C
:100F5000F6D987E00027C4F2422700203866FFF761
:100F600007FB022D05460BD13068800140F18880D7
:100F7000FFF7FEFA401B02284FF00300F4D935E7D3
:100F8000306880017FF531AFFFF7F2FA401B02288D
:100F90004FF00300F4D929E700210160FFF7E8FAD8
:100FA000054600BF306880077FF504AFFFF7E0FA21
:100FB000401B02284FF00300F4D917E7306840F4D3
:100FC00080203060306840F4803006E0306820F4E3
:100FD00080303060306820F480203060F06AA16892
:100FE00020F00F000843F062FFF7C2FA054600BF89
:100FF000306880033FF5C0AEFFF7BAFA401B6428A3
:10100000F6D92FE0306A20F001003062306A20F01B
:1010100004003062FFF7ACFA054641F2883700BFA2
:10102000306A800722D5FFF7A3FA401BB8424FF081
:101030000300F5D9DAE600BF306A40F00400306200
:10104000306A40F001003062FFF792FA054641F243
:10105000883700BF306A800708D4FFF789FA401B41
:10106000B842F7D9032002B0BDE8F081B8F1000F13
:101070007FF4A6AEF06920F08050F061A0E600BFDA
:101080007068D4E9082120F474100843104370609C
:1010900001203866FFF76CFA044600BF3068800113
:1010A0003FF5A3AEFFF764FA001B02284FF00300E0
:1010B000F4D99BE670470000B0B582B004460068E2
:1010C0004168826812F0400305D112F0010518BF93
:1010D00011F0400512D1950708D511F0800505D013
:1010E000216D204602B0BDE8B040084712F4B07F41
:1010F00018BF11F0200507D102B0B0BDE16C204649
:1011000002B0BDE8B0400847BBB194F85D30032B96
:1011100008D100210191C168019180680190019876
:1011200002B0B0BD236E43F0040323660023019395
:10113000C368019383680193019B12F0200302F4BA
:10114000807203D18AB9226EDAB9D5E7236E43F0F3
:10115000010323660023019383680193036823F04E
:1011600040030360019B002AEDD0226E42F008028A
:1011700022660022019282680192019A226E002A60
:10118000BAD04268890722F0E00242604FF00102C3
:1011900084F85D2020D0416841F60D0521F003015F
:1011A0004160A06DC0F6000538B14563FFF7C4F893
:1011B00018B1206E40F040002066606D00289BD082
:1011C0004563FFF7B9F800283FF496AF206E40F072
:1011D0004000206602B0B0BD204602B0BDE8B0407D
:1011E000FFF768BF002804BF01207047B0B5044670
:1011F000406A28B10020206104F1140006E000BF1D
:101200006068B0F5827F03D004F11C00002101600A
:101210000025A56294F85D0020B9204684F85C5052
:1012200000F052F8022084F85D002068D4F80CE049
:101230000268BEF5E06F22F0400202604EF40062E8
:1012400098BF0125B2F5706F1CBF0023A3624FEA5F
:10125000053CD4E90135D4E9042103F4827305F493
:1012600004452B4402F002021A44A36901F0010173
:10127000E569114403F40072114405F03802256A4F
:10128000114405F08002A56A114405F4005211438F
:1012900001600421626A0EF4706501EA1341636B18
:1012A00045EA0C0502F01002294303F0080311433C
:1012B00019434160C16921F40061C161002001212D
:1012C000206684F85D10B0BD2DE9F04387B000685A
:1012D00043F60001C4F2000100268842CDE905660C
:1012E000CDE9036602962DD043F20001C4F201015C
:1012F000884270D141F21400C4F20200416841F406
:1013000080514160416801F4805101910199016867
:1013100041F400310160006802A900F4003001903E
:101320000198E02002900220039000200490032006
:101330000590052006904FF09040FFF725F807B084
:10134000BDE8F08341F21400C4F20200816840F26B
:10135000004441F4804181608168C4F6000401F4D6
:10136000804101910199016802AD41F48001016061
:1013700001684FF0020801F48001019101990168B0
:101380004FF0030941F4802101600068052700F453
:101390008020019001984FF40070029004F5805075
:1013A0002946CDE90386CDF814900697FEF7ECFFA9
:1013B0004FF44040CDE9020820462946CDE90469B2
:1013C0000697FEF7E1FF242000210022FFF71AFA1A
:1013D0002420FFF707FA07B0BDE8F08380B590F846
:1013E0005D30012B3ED1D0F808C0BCF1000F3BD1DD
:1013F0004368B3F5827F37D184461CF85C3F4FF0D9
:10140000040E012B8CF801E032D090F85D30042BF3
:1014100001D0012B76D100294FF0010318BF002A1B
:101420006BD090F85D30042B1CBF052380F85D3035
:101430000023036681638287C2870164A0F8442089
:10144000A0F84620C168B1F5E06F61D941F2CD51F5
:1014500041F26962C0F60001C0F60002C0E9131251
:1014600062E000BF022346E090F85C30012B01D11E
:10147000022080BD00294FF0010318BF002A3AD096
:10148000042380F85D30002303660164A0F8442043
:10149000A0F8462083638387C38701680365C26819
:1014A0004B68B2F5E06F41F6410223F4805341F6F8
:1014B0001D0EC0F6000298BF03F58053C0F6000E63
:1014C00088BF7246BCF5004F4B60C26407D10A6802
:1014D00022F040020A600A6822F480420A604A68E8
:1014E00042F060024A600A68520603D40A6842F079
:1014F00040020A60002300F15C0C00208CF8000020
:10150000184680BD022300208CF80000184680BDDC
:1015100041F2016141F29963C0F60001C0F6000397
:10152000022AC164036505D30068416821F4805133
:1015300004E000BF0068416841F4805141604168A7
:1015400041F0E00141600168490609D401680023C7
:1015500041F04001016000208CF80000184680BD79
:10156000002300208CF80000184680BD41F20000E6
:10157000C4F600004FF480710122FEF7F3BF0000B3
:1015800070470000411E0020B0EB116F1CBF01200E
:1015900070474EF21002CEF2000251604EF6235117
:1015A000CEF20001F0230B700721906011607047AC
:1015B000FEE70000FEE70000FEE7000070470000C5
:1015C00040F21840C2F20000FFF776BD0168026CDD
:1015D000CB6822F8023B0264B0F84620013AA0F83A
:1015E0004620B0F84620002A18BF70474A6822F00B
:1015F00040024A60C18F002908BF00F077B87047E9
:10160000B0F846200168022A12D3CA68036C23F896
:10161000022B0364B0F84620023AA0F84620B0F846
:101620004620012A0FD14A6842F480524A600AE0FB
:10163000097B026C1170016C01310164B0F8461035
:101640000139A0F84610B0F84610002918BF7047BD
:1016500001684A6822F060024A60C18F002908BF11
:1016600000F044B870470000826B016832F8023B1A
:10167000CB608263C28F013AC287C28F002A18BF33
:1016800070474A6822F080024A60B0F8461000298C
:1016900008BF00F02BB87047C18F02294FF6FE71CA
:1016A00008D3826BD0F800C032F8023BCCF80C3083
:1016B000826307E0826B0368127801311A73826BD0
:1016C00001328263C28F1144C187C18F002918BFC4
:1016D000704701684A6822F080024A60B0F84610FC
:1016E000002908BF00F002B870470000B0B50446FA
:1016F000FEF73EFF216805464A682B4622F020008F
:10170000486020464FF4C051642200F0ADF868B93B
:10171000204664212A4600F06BF938B920464FF480
:10172000C06164222B4600F09FF838B1206E40F073
:1017300020002066206E40F020002066206E38B128
:101740000121204684F85D10BDE8B040FFF7B2BC2F
:1017500094F85D0001210428204684F85D1003D12F
:10176000BDE8B040FFF702BFBDE8B040FFF708BFDB
:10177000B0B504460068416821F060014160FEF7A1
:10178000F7FE61680546B1F5827F0BD1A068B0F520
:10179000004F02D0B0F5806F04D12068016821F0BD
:1017A00040010160204664212A4600F021F948B139
:1017B000206E40F020002066206E40F02000206661
:1017C00014E000BF6068B0F5827F0FD1A068B0F56B
:1017D000004F02D0B0F5806F08D120464FF4C061B1
:1017E00064222B4600F040F80028E1D1012084F863
:1017F0005D00206E20B12046BDE8B040FFF75ABC26
:101800002046BDE8B040FFF7B1BE0000406A0021AD
:10181000A0F84610C187FFF74DBC00000168026CBC
:10182000C96822F8021B0264B0F846100139A0F81A
:101830004610B0F84610002908BFFFF799BF70475F
:101840000168097B026C1170016C01310164B0F810
:1018500046100139A0F84610B0F84610002908BF1C
:10186000FFF786BF704700002DE9F04782B00026E1
:101870001F4690460D4681468DF80360FEF778FEC0
:10188000381A00EB0807FEF773FE40F20801C2F2B7
:101890000001096823225143090DD9F8004079431A
:1018A0000191A168294271D0824618F1010037D018
:1018B000B5F5C06F1CD100BF207B8DF803009DF8EB
:1018C0000300FEF755FEA0EB0A00B84262D2019871
:1018D00001990028A1F101010191D9F8001089684E
:1018E00008BF074611F4C06FE6D100264EE000BFE6
:1018F000FEF73EFEA0EB0A00B8424BD201980199D8
:101900000028A1F101010191D9F80010896808BFF0
:1019100007462942ECD10026304602B0BDE8F087E8
:101920000026B5F5C06F25D1207B8DF803009DF80A
:101930000300A06810F4C06FEDD0207B8DF8030089
:101940009DF80300A06810F4C06FE4D0207B8DF8F0
:1019500003009DF80300A06810F4C06FDBD0207B6B
:101960008DF803009DF80300A06810F4C06FDBD170
:101970000CE000BFA0682842CDD0A0682842CAD0A1
:10198000A0682842C7D0A0682842F3D1304602B0F0
:10199000BDE8F087D9E900014268B1F5827F22F005
:1019A000E00242600BD1D9F80810B1F5004F02D027
:1019B000B1F5806F03D1016821F040010160D9F8D1
:1019C0002810B1F5005F07D1016821F400510160D2
:1019D000016841F400510160012089F85D00002098
:1019E00089F85C000326304602B0BDE8F0870000AD
:1019F000F0B581B015460E460446FEF7B9FD281A2B
:101A00008719FEF7B5FD40F20801C2F2000109682E
:101A1000C1F3CB317943009121688A68120622D53F
:101A20000546701C15D000BFFEF7A2FD401BB84252
:101A30001CD2009800990028A1F1010100912168B1
:101A4000896808BF07460806EED40CE088680006DF
:101A500009D58868000606D58868000644BF8868EE
:101A60005FEA0060F2D4002001B0F0BDD4E90001CB
:101A70004268B1F5827F22F0E00242600AD1A1689B
:101A8000B1F5004F02D0B1F5806F03D1016821F0AC
:101A900040010160A16AB1F5005F07D1016821F43E
:101AA00000510160016841F400510160012084F897
:101AB0005D00002084F85C00032001B0F0BD000050
:101AC00070470000FEF72CBE4EF68850CEF20000A4
:101AD000016841F470010160704700000146012077
:101AE000A1F8400000220020A1F84020A1F84420E5
:101AF000A1F85020704700000146B0F8400044F2C1
:101B0000FF0202400020A1F840207047FEE70000DD
:101B10009EB0FEF713FE6846002404303421CDE960
:101B20001944CDE91744FEF79FFB032014904FF4AE
:101B3000A020CDE9150401201890102019904FF431
:101B400080301C904FF4801002251D9014A81B9526
:101B5000FFF7FAF820B1EFF3108072B6FEE700BF8E
:101B60000F20CDE90F054FF48060CDE912040FA8D6
:101B700001211194FFF718F820B1EFF3108072B62D
:101B8000FEE700BF2020C0F2020000904FF480006A
:101B900000270E9068460797FEF7FEFE20B1EFF390
:101BA000108072B6FEE700BF41F21400CDE9037762
:101BB000C4F20200016841F2000441F40011016026
:101BC0000168C4F6000401F400111491149901682D
:101BD00043F6000841F4002101600168002201F48D
:101BE0000021149114990168C4F2000841F48001A5
:101BF000016001684FF6087601F480011491149990
:101C0000016841F400310160016801F40031149170
:101C10001499016841F48021016000684FF6087151
:101C200000F48020149014982046FEF79BFC372087
:101C300000904FF490106D46CDE9010720462946EB
:101C4000FEF7A2FB0096012620462946CDE9016752
:101C50000397FEF799FB4FF090402946CDE90067C6
:101C60000297FEF791FB40F27004C2F2000408F5FF
:101C7000E051204640F8041F40F60E11C2F2000168
:101C8000C0E90117C0E90367C0E90577C0E9077734
:101C9000FEF7BEFC20B1EFF3108072B6FEE700BF86
:101CA000043420460021FEF769FC28B1EFF31080D0
:101CB00072B600BFFEE700BF204600210025FEF7F8
:101CC00083FC28B1EFF3108072B600BFFEE700BFBF
:101CD00040F2B43008F57841C2F200004FF440738E
:101CE0004FF40074082607274FF4827280E826001C
:101CF000C0E90335C0E90554C661C0E90855C0E92B
:101D00000A57C0E90C56FFF76DFA28B1EFF31080BF
:101D100072B600BFFEE700BF40F21840C2F20000FA
:101D200000254FF47061C0E90085C0E90251C0E9A7
:101D300004558461C0E90855C0E90A57C0E90C554B
:101D4000FFF750FA20B1EFF3108072B6FEE700BF44
:101D500040F2C80008F51051C2F200000223082228
:101D600080E80E00036185610562FEF787FD28B1FA
:101D7000EFF3108072B600BFFEE700BF40F21844D8
:101D800040F27005C2F20004C2F200052046294666
:101D90000122FFF723FBF9E7F1EE100A4FF6FF717E
:101DA000C0F2C03120EA010040F04070E1EE100ABC
:101DB0007047000000000000000001020304060755
:101DC000080902030405060708090A0B0C0D0E0F8B
:101DD00010100102030405060708090A0B0C0D0E7A
:101DE0000F100000081E0008000000201000000076
:101DF000C4010008181E000810000020700A00002E
:101E0000E0010008000000000100000010000000D8
:081E100000127A00000000003E
:040000050800018965
:00000001FF
