:020000040800F2
:10000000C80900202902000831270008AD25000892
:100010002D270008210400082130000800000000FE
:10002000000000000000000000000000A92E0008F1
:100030002504000800000000A1270008012F000887
:10004000430200084302000843020008430200087C
:10005000430200084302000843020008430200086C
:10006000430200084302000843020008430200085C
:10007000430200084302000843020008430200084C
:10008000430200084302000843020008430200083C
:10009000430200084302000843020008430200082C
:1000A000430200084302000843020008430200081C
:1000B000430200084302000843020008430200080C
:1000C00043020008430200084302000843020008FC
:1000D000A527000843020008430200084302000865
:1000E00043020008430200084302000843020008DC
:1000F00043020008430200084302000843020008CC
:1001000000000000000000000000000043020008A2
:1001100043020008430200084302000843020008AB
:10012000430200084302000843020008430200089B
:100130004302000843020008000000000000000025
:1001400043020008430200084302000800000000C8
:10015000000000000000000000000000000000009F
:1001600000000000000000004302000843020008F5
:100170004302000800000000000000000000000032
:10018000000000004302000800F002F800F03CF814
:100190000AA090E8000C82448344AAF10107DA45E2
:1001A00001D100F031F8AFF2090EBAE80F0013F0F8
:1001B000010F18BFFB1A43F001031847A82F0000D6
:1001C000C82F0000103A24BF78C878C1FAD8520767
:1001D00024BF30C830C144BF04680C6070470000C1
:1001E0000023002400250026103A28BF78C1FBD840
:1001F000520728BF30C148BF0B6070471FB502F0DF
:100200008CFF1FBD10B510BD00F0D0F81146FFF7F0
:10021000F5FF02F067FF00F0EEF803B4FFF7F2FF1E
:1002200003BC00F0F5F80000094880470948004782
:10023000FEE7FEE7FEE7FEE7FEE7FEE7FEE7FEE796
:10024000FEE7FEE704480549054A064B70470000F3
:10025000A52F000889010008C8030020C809002054
:10026000C8050020C805002053EA020C00F0698090
:100270002DE9F04B4FF00006002B1FBFB3FA83F5BA
:1002800003FA05F424FA05F65E4012BF1643B2FAEB
:1002900082F502FA05F4C5F120051EBF22FA05FC1D
:1002A00044EA0C04203556EA044C4FEA144418BFC3
:1002B000641C4FF000084FF00009904271EB030CF2
:1002C00039D3002919BFB1FA81F701FA07F6B0FA5C
:1002D00080F700FA07F6C7F120071EBF20FA07FCD7
:1002E00046EA0C062037B6FBF4FCA7EB0507103FE7
:1002F00007F01F0BCBF120062CFA06F60CFA0BFBCD
:1003000044BFB3460026202FA4BF5E464FF0000B2B
:100310005BEA060C08BF4FF0010B19EB0B0948EB29
:100320000608ABFB027C06FB02CC0BFB03CCC01B1C
:1003300071EB0C01C1E70B46024641464846BDE859
:10034000F08B13B5084318BF4FF0FF300146AFF3F1
:100350000080BDE81C4070474FF0000200B5134616
:1003600094469646203922BFA0E80C50A0E80C50D5
:10037000B1F12001BFF4F7AF090728BFA0E80C5086
:1003800048BF0CC05DF804EB890028BF40F8042B7F
:1003900008BF704748BF20F8022B11F0804F18BFEC
:1003A00000F8012B7047704770477047754600F0A2
:1003B0002BF8AE4605006946534620F007008546F7
:1003C00018B020B5FFF73EFFBDE820404FF0000613
:1003D0004FF000074FF000084FF0000BAC46ACE8C0
:1003E000C009ACE8C009ACE8C009ACE8C00921F01C
:1003F00007018D46704710B50446AFF300802046D4
:10040000BDE81040FFF709BF00487047100000200A
:1004100001491820ABBEFEE726000200704700002D
:10042000FFE7FEE77047000081B0EFF3108072B67F
:100430000090FFE7FEE7000080B582B00190002049
:100440008DF80300019890F82100022807D0FFE7FB
:1004500001990420886301208DF8030024E00198AD
:100460000168086820F00E000860019801680868BB
:1004700020F0010008600198C26B016C012000FAB5
:1004800001F15160019981F82100FFE701990020F5
:1004900081F82000FFE70198406B20B1FFE7019849
:1004A000416B8847FFE7FFE79DF8030002B080BD7E
:1004B0008AB00990089100200790FFE7089800682B
:1004C0000799C840002800F09781FFE70898006866
:1004D000079A01219140084006900698002800F0F4
:1004E0008781FFE70898406800F00300012807D0E3
:1004F000FFE70898406800F0030002282FD1FFE7CB
:1005000009988068059007984100032000FA01F1DE
:100510000598884305900898C0680799490000FA33
:1005200001F1059808430590059809998860099894
:10053000406805900799012000FA01F10598884369
:10054000059008984068C0F30010079900FA01F17F
:10055000059808430590059809994860FFE70898B1
:10056000406800F00300032818D0FFE70998C0682E
:10057000059007984100032000FA01F1059888438F
:100580000590089880680799490000FA01F10598DC
:100590000843059005980999C860FFE708984068E6
:1005A00000F00300022826D1FFE7099807996FF0B1
:1005B000030202EA51010844006A0590079800F01E
:1005C000070081000F2000FA01F10598884305908B
:1005D00008980069079901F00701890000FA01F104
:1005E00005980843059005980999079B02EA53026C
:1005F00011440862FFE709980068059007984100D8
:10060000032000FA01F10598884305900898406896
:1006100000F003000799490000FA01F1059808432A
:100620000590059809990860089880798007002846
:1006300000F0DD80FFE7FFE741F21800C4F202009E
:10064000016841F001010160006800F001000490C0
:100650000498FFE7079820F003000821C4F2010185
:1006600040580590079800F0030081000F2000FA21
:1006700001F10598884305900998B0F1904F03D196
:10068000FFE70020039034E0099840F20041C4F6EF
:100690000001884203D1FFE70120029026E009987B
:1006A00040F60001C4F60001884203D1FFE70220B2
:1006B000019018E0099840F60041C4F60001884214
:1006C00003D1FFE7032000900AE0099941F20002FC
:1006D000C4F600020520914208BF04200090FFE705
:1006E00000980190FFE701980290FFE702980390BD
:1006F000FFE70398079901F00301890000FA01F16F
:100700000598084305900598079921F003010822F0
:10071000C4F20102885040F20840C4F201000068AF
:100720000590069905988843059008988079C00639
:10073000002805D5FFE70699059808430590FFE7CF
:10074000059840F20841C4F20101086040F20C40F3
:10075000C4F2010000680590069905988843059049
:10076000089880798006002805D5FFE70699059846
:1007700008430590FFE7059840F20C41C4F20101DF
:10078000086040F20440C4F2010000680590069938
:10079000059888430590089880798007002805D53A
:1007A000FFE70699059808430590FFE7059840F292
:1007B0000441C4F20101086040F20040C4F20100AB
:1007C00000680590069905988843059008988079F7
:1007D000C00728B1FFE70699059808430590FFE791
:1007E000059840F20041C4F201010860FFE7FFE70D
:1007F00007980130079061E60AB0704783B0029015
:10080000ADF80610029840690090009ABDF8060005
:1008100002EA0001904340EA01400299886103B076
:100820007047000082B00190ADF802108DF80120F1
:100830009DF8010028B1FFE7BDF802000199886129
:1008400004E0BDF8020001998862FFE702B070473A
:1008500040F2C430C2F200000068704740F2040069
:10086000C2F20000027840F2C431C2F2000108680E
:10087000104408607047000080B582B042F2000169
:10088000C4F20201086840F010000860032000F084
:100890008BF80020019000F005F800F03BF801987B
:1008A00002B080BD80B582B0009040F20000C2F27C
:1008B0000000006840F20401C2F200010A784FF41F
:1008C0007A71B1FBF2F1B0FBF1F001F067FE20B1FB
:1008D000FFE701208DF8070018E000980F280DD8D9
:1008E000FFE700994FF0FF30002200F043F8009836
:1008F00040F20801C2F20001086003E001208DF817
:10090000070003E000208DF80700FFE79DF80700CF
:1009100002B080BD80B582B0FFE741F21800C4F29A
:100920000200016841F001010160006800F001006F
:1009300001900198FFE7FFE741F21C00C4F20200BA
:10094000016841F080510160006800F08050009023
:100950000098FFE7072000F027F802B080BD0000F4
:1009600080B582B08DF807009DF9070002F05AFBB0
:1009700002B080BD80B586B08DF817000491039257
:100980000020029002F066FB02909DF91700019092
:1009900002980499039A01F0CDFE0146019802F0F5
:1009A00061FB06B080BD000080B582B00190019867
:1009B00002F07AFB02B080BDF0B589B007900798CD
:1009C00020B9FFE701208DF82300D2E0079890F8C6
:1009D000A90240B9FFE70799002081F8A80207980B
:1009E00000F0CCF8FFE70799032081F8A9020798E7
:1009F000006802F005FB00208DF81B00FFE79DF862
:100A00001B000799496888423CD2FFE707989DF888
:100A10001B1001EB810100EBC101012081F82900CD
:100A20009DF81B00079900EB800201EBC20181F8E1
:100A3000280007989DF81B1001EB810100EBC10114
:100A4000002081F82B0007999DF81B2002EB820201
:100A500001EBC201886307999DF81B2002EB82021B
:100A600001EBC201C86307999DF81B2002EB8202CB
:100A700001EBC2010864FFE79DF81B0001308DF80F
:100A80001B00BCE700208DF81B00FFE79DF81B0052
:100A90000799496888423ED2FFE707989DF81B10E6
:100AA00001EB810100EBC101002081F869019DF893
:100AB0001B10079A01EB810302EBC30282F8681155
:100AC00007999DF81B2002EB820201EBC20181F81D
:100AD0006B0107999DF81B2002EB820201EBC2011A
:100AE000C1F8780107999DF81B2002EB820201EB07
:100AF000C201C1F87C0107999DF81B2002EB82021C
:100B000001EBC201C1F88001FFE79DF81B00013035
:100B10008DF81B00BAE7DDF81CE0CDF814E0DEF834
:100B20000000DEF80410DEF80820DEF80C30DEF8F5
:100B300010C0DEF81440DEF81850DEF81C60DEF855
:100B40002070EE46CEF81070CEF80C60CEF808504B
:100B5000CEF80440CEF800C002F02EFA079900202B
:100B600081F82400079A012182F8A9128DF8230048
:100B7000FFE79DF8230009B0F0BD000080B588B004
:100B8000079000200690059004900390029007982B
:100B9000006845F60041C4F2000188422FD1FFE70A
:100BA000FFE741F21400C4F20200016841F4003191
:100BB0000160006800F4003001900198FFE74FF4F5
:100BC000C050029002200390002004900320059062
:100BD0000E2006904FF0904002A9FFF769FCFFE756
:100BE00041F21C00C4F20200016841F400010160FE
:100BF000006800F4000000900098FFE7FFE708B0ED
:100C000080BD000080B58AB0089000200790069053
:100C10008DF8170008988078C007002800F0D2806F
:100C2000FFE741F21C00C4F202000068C000002887
:100C300013D4FFE7FFE741F21C00C4F20200016891
:100C400041F080510160006800F0805004900498E9
:100C5000FFE701208DF81700FFE747F20000C4F21C
:100C600000000068C005002822D4FFE747F2000119
:100C7000C4F20001086840F480700860FFF7E8FDE6
:100C80000790FFE747F20000C4F200000068C005CB
:100C900000280CD4FFE7FFF7DBFD0799401A652811
:100CA00004D3FFE703208DF8270077E1EAE7FFE7A9
:100CB00041F22000C4F20200006800F44070069087
:100CC0000698002864D0FFE706980899496801F45F
:100CD000407188425CD0FFE741F22001C4F202017A
:100CE000086820F44070069040F24042C4F242226C
:100CF0000120106000201060069808609DF8180020
:100D0000C007002843D0FFE7FFF7A2FD0790FFE7E9
:100D1000012038B9FFE741F20000C4F20200006888
:100D2000039020E0002038B9FFE741F22000C4F230
:100D300002000068029013E0012038B9FFE741F299
:100D40000400C4F202000068019006E041F22400B1
:100D5000C4F2020000680190FFE701980290FFE7EB
:100D600002980390FFE70398800700280ED4FFE75E
:100D7000FFF76EFD0799401A41F28931884204D38A
:100D8000FFE703208DF8270008E1C1E7FFE7FFE751
:100D900041F22001C4F20201086820F44070089A70
:100DA0005268104308609DF81700012809D1FFE739
:100DB00041F21C01C4F20201086820F08050086072
:100DC000FFE7FFE708980078C00760B1FFE741F24E
:100DD0003001C4F20201086820F00300089A92680A
:100DE00010430860FFE708980078800700280CD5BA
:100DF000FFE741F23001C4F20201086820F44030FC
:100E0000089AD26810430860FFE708980078400706
:100E100000280CD5FFE741F23001C4F20201086856
:100E200020F44020089A126910430860FFE70898F0
:100E30000078800600280CD5FFE741F23001C4F2AB
:100E40000201086820F01000089AD2691043086077
:100E5000FFE708988078800700280CD5FFE741F26B
:100E60000401C4F20201086820F48000089A926B21
:100E700010430860FFE708980078400600280CD56A
:100E8000FFE741F23001C4F20201086820F02000BF
:100E9000089A126A10430860FFE708980078000774
:100EA00000280CD5FFE741F23001C4F202010868C6
:100EB00020F44010089A526910430860FFE7089830
:100EC0000078C00600280CD5FFE741F23001C4F2DB
:100ED0000201086820F44000089A926910430860F3
:100EE000FFE708984078800700280CD5FFE741F21B
:100EF0000401C4F20201086820F40000089AD26AD2
:100F000010430860FFE708980078000600280CD519
:100F1000FFE741F22C01C4F20201086820F4F870E6
:100F2000089A526A10430860FFE708984078C007A3
:100F300060B1FFE741F22C01C4F20201086820F41D
:100F40007850089A926A10430860FFE70898407842
:100F5000C00600280CD5FFE741F23001C4F20201BF
:100F6000086820F48070089A126B10430860FFE74D
:100F700008984078800600280CD5FFE741F2300140
:100F8000C4F20201086820F40070089A526B104302
:100F90000860FFE700208DF82700FFE79DF8270095
:100FA0000AB080BD80B58EB00C900B9100200A90E5
:100FB0000C9820B9FFE701208DF8370073E10B98FA
:100FC00042F20001C4F20201096801F007018842FF
:100FD00016D9FFE742F20000C4F20200016821F0D6
:100FE00007010B9A11430160006800F007000B999C
:100FF000884204D0FFE701208DF8370053E1FFE776
:101000000C980078800700280CD5FFE741F2040116
:10101000C4F20201086820F0F0000C9A92681043B4
:101020000860FFE70C980078C007002800F0D68021
:10103000FFE70C984068012835D1FFE7002038B958
:10104000FFE741F20000C4F202000068099020E0CE
:10105000012038B9FFE741F22000C4F20200006825
:10106000089013E0012038B9FFE741F20400C4F210
:1010700002000068079006E041F22400C4F202007A
:1010800000680790FFE707980890FFE70898099025
:10109000FFE709988003002804D4FFE701208DF8BA
:1010A000370000E16FE00C984068022835D1FFE777
:1010B000002038B9FFE741F20000C4F202000068E6
:1010C000069020E0012038B9FFE741F22000C4F289
:1010D00002000068059013E0012038B9FFE741F2F3
:1010E0000400C4F202000068049006E041F224000B
:1010F000C4F2020000680490FFE704980590FFE73F
:1011000005980690FFE706988001002804D4FFE7C1
:1011100001208DF83700C6E034E0002038B9FFE741
:1011200041F20000C4F202000068039020E00120B8
:1011300038B9FFE741F22000C4F2020000680290D3
:1011400013E0012038B9FFE741F20400C4F20200C5
:101150000068019006E041F22400C4F20200006839
:101160000190FFE701980290FFE702980390FFE7E4
:1011700003988007002804D4FFE701208DF837008A
:1011800091E0FFE7FFE741F20401C4F202010868C1
:1011900020F003000C9A526810430860FFF758FBD8
:1011A0000A90FFE741F20400C4F20200006800F078
:1011B0000C000C994968B0EB810F0ED0FFE7FFF7E8
:1011C00047FB0A99401A41F28931884204D3FFE76C
:1011D00003208DF8370066E0E4E7FFE70B9842F262
:1011E0000001C4F20201096801F00701884216D229
:1011F000FFE742F20000C4F20200016821F007019B
:101200000B9A11430160006800F007000B998842B7
:1012100004D0FFE701208DF8370044E0FFE70C9889
:101220000078400700280CD5FFE741F20401C4F222
:101230000201086820F4E0600C9AD268104308604C
:10124000FFE70C980078000700280DD5FFE741F272
:101250000401C4F20201086820F460500C9A12697B
:1012600040EAC2000860FFE700F022F841F2040102
:10127000C4F202010968C9B20A0943F23411C0F686
:101280000001895CC84040F20001C2F20001086020
:1012900040F20800C2F200000068FFF703FB0020E4
:1012A0008DF83700FFE79DF837000EB080BD0000D5
:1012B00080B586B0002005900490039002900190C4
:1012C00041F20400C4F2020000680590059800F0A5
:1012D0000C0001460091002841D0FFE70098042847
:1012E00004D0FFE70098082806D039E041F200203A
:1012F000C0F27A00019039E00598C0F3834143F2CF
:101300004410C0F60000405C029041F22C00C4F290
:101310000200006800F00F0143F25410C0F6000014
:10132000405C04909DF81600C00768B1FFE7049A7E
:1013300041F20020C0F27A0000231946FEF794FF24
:1013400002994843039007E0029840F60011C0F26A
:101350003D0148430390FFE70398019006E0FFE753
:1013600041F20020C0F27A000190FFE7019806B038
:1013700080BD000080B5AEB02C902C9828B9FFE756
:1013800001208DF8B70000F028BD2C980078C00728
:10139000002800F03181FFE741F20400C4F20200AE
:1013A000006800F00C00042813D0FFE741F20400AD
:1013B000C4F20200006800F00C00082843D1FFE7E7
:1013C00041F20400C4F202000068C00300283AD5CC
:1013D000FFE7002038B9FFE741F20000C4F2020045
:1013E0000068279020E0012038B9FFE741F2200093
:1013F000C4F202000068269013E0012038B9FFE72C
:1014000041F20400C4F202000068259006E041F2B7
:101410002400C4F2020000682590FFE7259826907A
:10142000FFE726982790FFE727988003002809D533
:10143000FFE72C98406828B9FFE701208DF8B70036
:1014400000F0CBBCD7E0FFE72C984068B0F5803FB8
:1014500009D1FFE741F20001C4F20201086840F43B
:101460008030086032E02C98406868B9FFE741F2AC
:101470000001C4F20201086820F4803008600868A6
:1014800020F48020086020E02C984068B0F5A02F60
:101490000DD1FFE741F20001C4F20201086840F4F7
:1014A00080200860086840F4803008600CE041F259
:1014B0000001C4F20201086820F480300860086866
:1014C00020F480200860FFE7FFE7FFE7FFE741F235
:1014D0002C01C4F20201086820F00F002C9A9268D7
:1014E000104308602C984068002842D0FFE7FFF7BF
:1014F000AFF92B90FFE7002038B9FFE741F2000079
:10150000C4F202000068249020E0012038B9FFE70F
:1015100041F22000C4F202000068239013E0012091
:1015200038B9FFE741F20400C4F2020000682290DB
:1015300006E041F22400C4F2020000682290FFE7B6
:1015400022982390FFE723982490FFE724988003B4
:1015500000280DD4FFE7FFF77BF92B99401A652887
:1015600005D3FFE703208DF8B70000F036BCC2E7D3
:1015700040E0FFF76DF92B90FFE7002038B9FFE757
:1015800041F20000C4F202000068219020E0012036
:1015900038B9FFE741F22000C4F202000068209051
:1015A00013E0012038B9FFE741F20400C4F2020061
:1015B00000681F9006E041F22400C4F202000068B7
:1015C0001F90FFE71F982090FFE720982190FFE7EA
:1015D0002198800300280CD5FFE7FFF739F92B99F4
:1015E000401A652804D3FFE703208DF8B700F4E321
:1015F000C3E7FFE7FFE7FFE72C98007880070028A4
:1016000040F10381FFE741F20400C4F202000068E8
:1016100010F00C0F13D0FFE741F20400C4F20200F7
:10162000006800F00C00082850D1FFE741F20400E8
:10163000C4F202000068C003002847D4FFE700207E
:1016400038B9FFE741F20000C4F2020000681E90C2
:1016500020E0012038B9FFE741F22000C4F2020087
:1016600000681D9013E0012038B9FFE741F2040043
:10167000C4F2020000681C9006E041F22400C4F2AB
:10168000020000681C90FFE71C981D90FFE71D9862
:101690001E90FFE71E988007002809D5FFE72C98C9
:1016A0000069012804D0FFE701208DF8B70094E31A
:1016B00041F20001C4F20201086820F0F8002C9AFF
:1016C000526940EAC2000860FFE79DE02C9800697B
:1016D000002852D0FFE70021C4F242210120086017
:1016E000FFF7B6F82B90FFE7002038B9FFE741F28B
:1016F0000000C4F2020000681B9020E0012038B90D
:10170000FFE741F22000C4F2020000681A9013E0E3
:10171000012038B9FFE741F20400C4F2020000687A
:10172000199006E041F22400C4F20200006819900A
:10173000FFE719981A90FFE71A981B90FFE71B988C
:10174000800700280CD4FFE7FFF782F82B99401A96
:10175000032804D3FFE703208DF8B7003DE3C3E778
:1017600041F20001C4F20201086820F0F8002C9A4E
:10177000526940EAC200086045E00021C4F24221FB
:1017800000200860FFF764F82B90FFE7002038B9CD
:10179000FFE741F20000C4F202000068189020E068
:1017A000012038B9FFE741F22000C4F202000068CE
:1017B000179013E0012038B9FFE741F20400C4F2AA
:1017C00002000068169006E041F22400C4F2020014
:1017D00000681690FFE716981790FFE71798189083
:1017E000FFE71898800700280CD5FFE7FFF730F8CF
:1017F0002B99401A032804D3FFE703208DF8B70084
:10180000EBE2C3E7FFE7FFE7FFE72C98007800076C
:10181000002840F19580FFE72C988069002847D088
:10182000FFE740F28041C4F2422101200860FFF747
:101830000FF82B90FFE7012038B9FFE741F20000D5
:10184000C4F202000068159020E0012038B9FFE7DB
:1018500041F22000C4F202000068149013E001205D
:1018600038B9FFE741F20400C4F2020000681390A7
:1018700006E041F22400C4F2020000681390FFE782
:1018800013981490FFE714981590FFE715988007B8
:1018900000280CD4FFE7FEF7DBFF2B99401A032842
:1018A00004D3FFE703208DF8B70096E2C3E746E0D4
:1018B00040F28041C4F2422100200860FEF7C8FFD8
:1018C0002B90FFE7012038B9FFE741F20000C4F296
:1018D00002000068129020E0012038B9FFE741F2D1
:1018E0002000C4F202000068119013E0012038B912
:1018F000FFE741F20400C4F202000068109006E025
:1019000041F22400C4F2020000681090FFE7109832
:101910001190FFE711981290FFE7129880070028B6
:101920000CD5FFE7FEF794FF2B99401A032804D348
:10193000FFE703208DF8B7004FE2C3E7FFE7FFE7BB
:101940002C9800784007002840F12781FFE700200D
:101950008DF8A70041F21C00C4F202000068C0002C
:10196000002813D4FFE7FFE741F21C00C4F2020095
:10197000016841F080510160006800F080502890BB
:101980002898FFE701208DF8A700FFE747F2000045
:10199000C4F200000068C005002822D4FFE747F227
:1019A0000001C4F20001086840F480700860FEF78E
:1019B0004FFF2B90FFE747F20000C4F200000068E1
:1019C000C00500280CD4FFE7FEF742FF2B99401A10
:1019D000652804D3FFE703208DF8B700FDE1EAE7AF
:1019E000FFE7FFE72C98C068012809D1FFE741F223
:1019F0002001C4F20201086840F00100086031E0F3
:101A00002C98C06868B9FFE741F22001C4F20201D6
:101A1000086820F001000860086820F004000860F1
:101A20001FE02C98C06805280DD1FFE741F2200186
:101A3000C4F20201086840F004000860086840F041
:101A4000010008600CE041F22001C4F202010868C4
:101A500020F001000860086820F004000860FFE73B
:101A6000FFE7FFE7FFE72C98C068002843D0FFE7B7
:101A7000FEF7EEFE2B90FFE7012038B9FFE741F2B9
:101A80000000C4F2020000680F9020E0002038B986
:101A9000FFE741F22000C4F2020000680E9013E05C
:101AA000012038B9FFE741F20400C4F202000068E7
:101AB0000D9006E041F22400C4F2020000680D908F
:101AC000FFE70D980E90FFE70E980F90FFE70F9835
:101AD000800700280ED4FFE7FEF7BAFE2B99401AC4
:101AE00041F28931884204D3FFE703208DF8B70023
:101AF00073E1C1E742E0FEF7ABFE2B90FFE7012068
:101B000038B9FFE741F20000C4F2020000680C900F
:101B100020E0002038B9FFE741F22000C4F20200C3
:101B200000680B9013E0012038B9FFE741F2040090
:101B3000C4F2020000680A9006E041F22400C4F2F8
:101B4000020000680A90FFE70A980B90FFE70B98E5
:101B50000C90FFE70C98800700280ED5FFE7FEF7F2
:101B600077FE2B99401A41F28931884204D3FFE76E
:101B700003208DF8B70030E1C1E7FFE79DF8A7002B
:101B8000012809D1FFE741F21C01C4F202010868F3
:101B900020F080500860FFE7FFE72C98C06900281C
:101BA00000F01781FFE741F20400C4F20200006870
:101BB00000F00C00082800F0E680FFE72C98C069D0
:101BC000022840F09980FFE76021C4F24221002002
:101BD0000860FEF73DFE2B90FFE7002038B9FFE7D5
:101BE00041F20000C4F202000068099020E00120E8
:101BF00038B9FFE741F22000C4F202000068089003
:101C000013E0012038B9FFE741F20400C4F20200FA
:101C10000068079006E041F22400C4F20200006868
:101C20000790FFE707980890FFE708980990FFE7FB
:101C30000998800100280CD5FFE7FEF709FE2B99D3
:101C4000401A032804D3FFE703208DF8B700C4E04F
:101C5000C3E741F20401C4F20201086820F47410E1
:101C60002C9A136A526A1A43104308606021C4F226
:101C7000422101200860FEF7EBFD2B90FFE70020DA
:101C800038B9FFE741F20000C4F202000068069094
:101C900020E0012038B9FFE741F22000C4F2020041
:101CA0000068059013E0012038B9FFE741F2040015
:101CB000C4F202000068049006E041F22400C4F27D
:101CC000020000680490FFE704980590FFE705987C
:101CD0000690FFE70698800100280CD4FFE7FEF786
:101CE000B7FD2B99401A032804D3FFE703208DF892
:101CF000B70072E0C3E745E06021C4F24221002052
:101D00000860FEF7A5FD2B90FFE7002038B9FFE73C
:101D100041F20000C4F202000068039020E00120BC
:101D200038B9FFE741F22000C4F2020000680290D7
:101D300013E0012038B9FFE741F20400C4F20200C9
:101D40000068019006E041F22400C4F2020000683D
:101D50000190FFE701980290FFE702980390FFE7E8
:101D60000398800100280CD5FFE7FEF771FD2B9941
:101D7000401A032804D3FFE703208DF8B7002CE0B6
:101D8000C3E7FFE724E02C98C069012804D1FFE7EE
:101D900001208DF8B70020E041F20400C4F20200F7
:101DA00000682A902A9800F480302C99096A8842A9
:101DB00008D1FFE72A9800F470102C99496A8842EC
:101DC00004D0FFE701208DF8B70006E0FFE7FFE74A
:101DD000FFE700208DF8B700FFE79DF8B7002EB0B1
:101DE00080BD000081B0009001B0704780B588B020
:101DF0000790079800684068069007980068806818
:101E000005909DF8140000F040010020B0EB911FF8
:101E100011D1FFE70598C00768B1FFE79DF81800EA
:101E200000F040010020B0EB911F04D0FFE70798BD
:101E3000C16C8847F0E09DF8140000F0020100201A
:101E4000B0EB510F0BD0FFE79DF818100020B0EB5E
:101E5000D11F04D0FFE70798016D8847DCE09DF8AB
:101E6000140000F020010020B0EB511F10D1FFE75B
:101E70009DF8140000F040010020B0EB911F07D145
:101E8000FFE79DF81500C007002800F0C580FFE7B8
:101E90009DF8180000F020010020B0EB511F00F069
:101EA000BB80FFE79DF8140000F040010020B0EB7C
:101EB000911F28D0FFE7079890F85D00032813D002
:101EC000FFE70799086E40F004000866FFE700206E
:101ED000049007980068C0680490079800688068BC
:101EE00004900498FFE70DE0FFE7002003900798B7
:101EF0000068C068039007980068806803900398A2
:101F0000FFE789E0FFE79DF8140000F020010020C2
:101F1000B0EB511F15D0FFE70799086E40F00100A4
:101F20000866FFE70020029007980068806802902A
:101F300007980168086820F0400008600298FFE7F1
:101F4000FFE79DF81500C00778B1FFE70799086E15
:101F500040F008000866FFE700200190079800683D
:101F6000806801900198FFE7FFE70798006E00285E
:101F700051D0FFE707980168486820F0E00048600A
:101F80000799012081F85D00069800F00200022800
:101F900005D0FFE79DF81800C007B8B3FFE7079822
:101FA0000168486820F0030048600798806DA0B180
:101FB000FFE70798816D42F63920C0F600004863BC
:101FC0000798806DFEF738FA30B1FFE70799086E81
:101FD00040F040000866FFE7FFE70798406DA0B1BA
:101FE000FFE70798416D42F63920C0F600004863CC
:101FF0000798406DFEF720FA30B1FFE70799086EA9
:1020000040F040000866FFE7FFE703E00798FFF7AE
:10201000E9FEFFE7FFE7FFE708B080BD80B584B0C9
:102020000290029820B9FFE701208DF80F0097E099
:102030000298406A60B9FFE702984068B0F5827F75
:1020400001D1FFE703E002990020C861FFE705E046
:1020500002990020086102994861FFE70299002077
:102060008862029890F85D0040B9FFE7029900206D
:1020700081F85C00029800F077F8FFE702990220EF
:1020800081F85D0002980168086820F0400008604F
:102090000298C068B0F5E06F03D9FFE70020019017
:1020A00003E04FF480500190FFE70298C068B0F55C
:1020B000706F0AD0FFE70298C068B0F5E06F04D0F7
:1020C000FFE7029900208862FFE7029A00921168F8
:1020D0005068D2F808C0136900F482700CF4044C04
:1020E000604403F002031844536903F001031844E9
:1020F000936903F400731844D36903F03803184458
:10210000136A03F080031844926A02F400521043E9
:102110000860029B588B00F004001968DA68D3F855
:1021200024C05B6B0CF0100C604403F008031844EF
:1021300002F470621044019A02F480521044486024
:1021400002980168C86920F40060C8610299002003
:102150000866029A012182F85D108DF80F00FFE7F2
:102160009DF80F0004B080BD80B590B00F900020A6
:102170000E900D900C900B900A900F98006843F60B
:102180000001C4F20001884263D1FFE7FFE741F29A
:102190001C00C4F20200016841F480410160006843
:1021A00000F4804009900998FFE7FFE741F214002E
:1021B000C4F20200016841F480010160006800F48B
:1021C000800008900898FFE7FFE741F21400C4F28E
:1021D0000200016841F480210160006800F4802061
:1021E00007900798FFE74FF400700A9002200190D3
:1021F0000B90002005900C90032002900D9005207C
:1022000003900E9041F20040C4F600000AA9049128
:10221000FEF74EF9DDF804C0029A03980499059B75
:102220004FF4004ECDF828E0CDF82CC00C930D9261
:102230000E9040F20040C4F60000FEF739F9059A0E
:10224000242006901146FEF795FB0698FEF788FBC2
:10225000FFE710B080BD000080B584B0029001910E
:10226000ADF8022000208DF80100029890F85D0082
:10227000012804D0FFE702208DF8010098E00298C1
:102280008068A0B9FFE702984068B0F5827F0ED160
:10229000FFE70299042081F85D000298019ABDF8D9
:1022A0000230114600F0AAF88DF80F008BE0FFE72E
:1022B000029890F85C00012804D1FFE702208DF815
:1022C0000F0080E00299012081F85C00FFE7FFE742
:1022D000019820B1FFE7BDF8020020B9FFE7012017
:1022E0008DF8010064E00299042081F85D000299F4
:1022F000002008660199029A1164BDF80210029A42
:10230000A2F84410BDF80210029AA2F846100299F1
:102310008863029988870299C8870299086502989C
:10232000C068B0F5E06F0DD9FFE702980168486812
:1023300020F480504860029942F6B930C0F600009F
:10234000C8640CE002980168486840F48050486016
:10235000029942F6F530C0F60000C864FFE7029823
:102360008068B0F5004F0DD1FFE70298016808685A
:1023700020F04000086002980168086820F480405E
:102380000860FFE702980168486840F06000486014
:1023900002980068006800F04000402807D0FFE77E
:1023A00002980168086840F040000860FFE7FFE716
:1023B000FFE70299002081F85C00FFE79DF801002B
:1023C0008DF80F00FFE79DF80F0004B080BD0000FE
:1023D00080B582B00190019840F25C31C2F20001F8
:1023E000884209D1FFE741F20000C4F600004FF433
:1023F0008071FEF703FAFFE702B080BD87B0059059
:1024000004910392ADF80A3000208DF80200FFE736
:10241000059890F85C00012804D1FFE702208DF8B0
:102420001B00B2E00599012081F85C00FFE7FFE79F
:10243000059890F85D008DF80300059840680190BC
:102440009DF80300012812D0FFE70198B0F5827FC4
:1024500009D1FFE70598806828B9FFE79DF80300D8
:10246000042804D0FFE702208DF8020082E00498DF
:1024700038B1FFE7039820B1FFE7BDF80A0020B9A3
:10248000FFE701208DF8020074E0059890F85D00E8
:10249000042805D0FFE70599052081F85D00FFE7D6
:1024A000059900200866049805998863BDF80A001C
:1024B00005998887BDF80A000599C887039805998A
:1024C0000864BDF80A000599A1F84400BDF80A00A7
:1024D0000599A1F846000598C068B0F5E06F0DD9E0
:1024E000FFE7059942F2B570C0F60000C86405998F
:1024F00042F6A500C0F6000008650CE0059942F61A
:102500000900C0F60000C864059942F6F100C0F663
:1025100000000865FFE70598C068B0F5E06F05D8D2
:10252000FFE7BDF80A00022807D3FFE70598016816
:10253000486820F48050486006E0059801684868C3
:1025400040F480504860FFE705980168486840F013
:10255000E000486005980068006800F040004028EE
:1025600007D0FFE705980168086840F04000086060
:10257000FFE7FFE7FFE70599002081F85C00FFE730
:102580009DF802008DF81B00FFE79DF81B0007B0C7
:102590007047000081B0009001B0704780B582B0F4
:1025A0000190019800F082FC02B080BDFFE7FEE7D9
:1025B00080B590B000200F900E900D900C900B9075
:1025C000FFE741F21400C4F20200016841F4002167
:1025D0000160006800F400200A900A98FFE7FFE716
:1025E00041F21400C4F20200016841F4800101606C
:1025F000006800F4800009900998FFE7FFE741F2C6
:102600001400C4F20200016841F400310160006866
:1026100000F4003008900898FFE7FFE741F214004B
:10262000C4F20200016841F400110160006800F486
:10263000001007900798FFE7FFE741F21400C4F28B
:102640000200016841F480210160006800F48020EC
:1026500006900698FFE741F20000C4F600000490DF
:102660004FF47F41019100220392FEF7DBF80398BB
:10267000012102910B910C900D904FF090400BA90D
:102680000591FDF715FFDDF804C0029B039A04983D
:102690000599CDF82CC00C930D920E92FDF708FF12
:1026A00010B080BD80B582B040F25C30C2F2000054
:1026B000009043F60001C4F2000101600021019185
:1026C00041604FF4806282604FF47062C2600161C9
:1026D00041614FF4007282610162416281620722AE
:1026E000C26201634163FFF799FC18B1FFE7FDF790
:1026F0009BFEFFE702B080BD80B540F27000C2F2E1
:10270000000045F60041C4F200010160082141606B
:10271000022181600161002181610162FEF74CF9B3
:1027200018B1FFE7FDF780FEFFE780BDFFE7FEE79A
:10273000FFE7FEE788B0079006910592079800F042
:10274000070004900498C0F10700052803D3FFE7B1
:102750000420019004E00498C0F107000190FFE715
:102760000198039004980430062803D8FFE700205E
:10277000009003E0049803380090FFE7009802906F
:1027800006980399012202FA01F101390840029BDF
:10279000984005999A40013A1140084308B07047A3
:1027A0007047000080B540F25C30C2F20000FFF7D5
:1027B0001DFB80BD80B582B0019001980068C068A3
:1027C0000199096C08800199086C0230086401992C
:1027D000B1F846000138A1F846000198B0F846006B
:1027E00078B9FFE701980168486820F04000486028
:1027F0000198C08F20B9FFE7019800F0B3F8FFE718
:10280000FFE702B080BD000080B582B00190019862
:10281000B0F8460002281ED3FFE701980068C068A0
:102820000199096C08800199086C023008640199CB
:10283000B1F846000238A1F846000198B0F8460009
:10284000012807D1FFE701980168486840F48050EB
:102850004860FFE710E001980068007B0199096C6F
:1028600008700199086C013008640199B1F84600BC
:102870000138A1F84600FFE70198B0F8460078B9A2
:10288000FFE701980168486820F0600048600198FF
:10289000C08F20B9FFE7019800F064F8FFE7FFE779
:1028A00002B080BD80B582B0019001980168806B54
:1028B0000088C8600199886B023088630199C88FCD
:1028C0000138C8870198C08F80B9FFE70198016877
:1028D000486820F0800048600198B0F8460020B9B0
:1028E000FFE7019800F03EF8FFE7FFE702B080BD88
:1028F00080B582B001900198C08F02280ED3FFE707
:1029000001980168806B0088C8600199886B02306B
:1029100088630199C88F0238C8870DE00198016863
:10292000806B007808730199886B01308863019986
:10293000C88F0138C887FFE70198C08F80B9FFE7CB
:1029400001980168486820F0800048600198B0F85C
:10295000460020B9FFE7019800F004F8FFE7FFE721
:1029600002B080BD80B582B00190FDF771FF00908C
:1029700001980168486820F0200048600198009A9A
:10298000642100F0CDF830B1FFE70199086E40F006
:1029900020000866FFE70198006EB8B9FFE70198CC
:1029A00090F85D00042808D1FFE70199012081F823
:1029B0005D000198FFF70CFD07E00199012081F807
:1029C0005D000198FFF7E6FDFFE707E001990120B0
:1029D00081F85D000198FFF705FAFFE702B080BDBE
:1029E00080B582B0019001980168486820F06000CD
:1029F000486001980090FDF72BFF02460098642183
:102A000000F02CF830B1FFE70199086E40F020008B
:102A10000866FFE70199012081F85D000198006ECA
:102A200020B9FFE70198FFF7D3FC03E00198FFF717
:102A3000D9F9FFE702B080BD80B582B0019001985E
:102A4000406A009000990020A1F846000099C887CC
:102A50000098FFF7C7F902B080BD000080B586B0CE
:102A600004900391029204984068B0F5827F13D1DC
:102A7000FFE704988068B0F5004F06D0FFE70498A0
:102A80008068B0F5806F07D1FFE704980168086897
:102A900020F040000860FFE70498039B02996A4613
:102AA00011608021002200F069F948B1FFE7049924
:102AB000086E40F02000086603208DF817002BE018
:102AC00004984068B0F5827F22D1FFE704988068BF
:102AD000B0F5004F06D0FFE704988068B0F5806F2E
:102AE00016D1FFE70498039B02996A4611604FF4E0
:102AF000C061002200F09CF848B1FFE70499086E1D
:102B000040F02000086603208DF8170004E0FFE77E
:102B100000208DF81700FFE79DF8170006B080BD74
:102B200080B586B00490039102920498039B0299A9
:102B30006A4611604FF4C051002200F079F848B1A4
:102B4000FFE70499086E40F02000086603208DF826
:102B500017002CE00498039B02996A4611608021BB
:102B6000002200F00BF948B1FFE70499086E40F02D
:102B70002000086603208DF8170018E00498039BD6
:102B800002996A4611604FF4C061002200F050F8CB
:102B900048B1FFE70499086E40F020000866032062
:102BA0008DF8170003E000208DF81700FFE79DF86F
:102BB000170006B080BD000080B582B0019001987A
:102BC0000068C0680199096C08800199086C02309E
:102BD00008640199B1F846000138A1F8460001984F
:102BE000B0F8460020B9FFE70198FFF7F9FEFFE7CC
:102BF00002B080BD80B582B0019001980068007B72
:102C00000199096C08700199086C013008640199F8
:102C1000B1F846000138A1F846000198B0F8460026
:102C200020B9FFE70198FFF7DBFEFFE702B080BDA8
:102C300080B58CB0DDF838C00A90099108920793EE
:102C400000208DF80B0007980190FDF701FE024669
:102C500001980E99891A08440590FDF7F9FD049032
:102C60000A9800680C300390059840F20001C2F207
:102C70000001096823225143090D48430690FFE7EC
:102C80000A980068806809990840089988426DD0C0
:102C9000FFE70998B0F5C06F0AD1FFE7089838B987
:102CA000FFE7039800788DF80B009DF80B00FFE715
:102CB00007980130002858D0FFE7FDF7C9FD0499B7
:102CC000401A0599884204D2FFE70598002842D1AE
:102CD000FFE70A980168486820F0E00048600A9819
:102CE0004068B0F5827F13D1FFE70A988068B0F59D
:102CF000004F06D0FFE70A988068B0F5806F07D1D3
:102D0000FFE70A980168086820F040000860FFE7C4
:102D10000A98806AB0F5005F0FD1FFE7FFE70A98D5
:102D20000168086820F4005008600A980168086883
:102D300040F400500860FFE7FFE70A99012081F89E
:102D40005D00FFE70A99002081F85C00FFE703209F
:102D50008DF82F000EE0069818B9FFE700200590C7
:102D6000FFE7069801380690FFE789E700208DF815
:102D70002F00FFE79DF82F000CB080BD80B58AB012
:102D8000DDF830C0089007918DF81B200593059859
:102D90000190FDF75DFD024601980C99891A0844DF
:102DA0000390FDF755FD0290039840F20001C2F236
:102DB00000010968C1F3CB3148430490FFE708984C
:102DC0000068806807990840401AB0FA80F040090E
:102DD0009DF81B1088425ED0FFE70598013000285F
:102DE00058D0FFE7FDF734FD0299401A0399884255
:102DF00004D2FFE70398002842D1FFE70898016852
:102E0000486820F0E000486008984068B0F5827F8C
:102E100013D1FFE708988068B0F5004F06D0FFE7B0
:102E200008988068B0F5806F07D1FFE708980168BF
:102E3000086820F040000860FFE70898806AB0F555
:102E4000005F0FD1FFE7FFE708980168086820F4EA
:102E50000050086008980168086840F40050086055
:102E6000FFE7FFE70899012081F85D00FFE7089977
:102E7000002081F85C00FFE703208DF827000EE0BA
:102E8000049818B9FFE700200390FFE70498013881
:102E90000490FFE793E700208DF82700FFE79DF8F7
:102EA00027000AB080BD00007047000080B582B0E6
:102EB000009000980138B0F1807F03D3FFE7012034
:102EC000019019E0009801384EF21401CEF2000191
:102ED00008604FF0FF300F2100F0C4F84EF21801E7
:102EE000CEF20001002008604EF21002CEF2000285
:102EF000072111600190FFE7019802B080BD00003A
:102F000080B5FDF7ABFC80BD80B5A0B016A80190E0
:102F10002821FDF721FA00200090159014901390BD
:102F20001290119002A83C21FDF716FA009A019820
:102F3000012116914FF4A023179318921A910221A0
:102F40001D914FF480311E914FF480111F91FEF7B7
:102F500011FA18B1FFE7FDF767FAFFE70F201190AC
:102F600002201290002013904FF48061149115906C
:102F700011A80121FEF716F818B1FFE7FDF754FA82
:102F8000FFE74FF4003002904FF48000109002A849
:102F9000FDF738FE18B1FFE7FDF746FAFFE720B06E
:102FA00080BD00004EF68851CEF20001086840F462
:102FB0007000086070470000F0B589B0129E119D46
:102FC000109CDDF83CE0DDF838C0089607950694C3
:102FD000CDF814E0CDF810C0039302920191009057
:102FE00000990120A1F8400000990020A1F84000BC
:102FF0000099A1F844000099A1F8500009B0F0BD73
:1030000082B001904FF43F400090009A0199B1F8CE
:1030100040009043A1F84000002002B0704700003B
:10302000FFE7FEE781B08DF803009DF9030000285B
:103030000ED4FFE79DF9031001F01F02012090401C
:103040004A094EF20011CEF2000141F82200FFE7DA
:1030500001B070474EF60C50CEF200000068C0F38D
:103060000220704782B08DF8070000919DF907009B
:1030700000280AD4FFE7009800019DF907104EF2DE
:103080000042CEF2000288540BE0009800019DF847
:10309000071001F00F014EF61452CEF200028854D0
:1030A000FFE702B07047000083B00290029800F082
:1030B000070000904EF60C51CEF200010868019016
:1030C00001984FF6FF02104001900198009A40EAE3
:1030D00002200022C0F2FA521043019001980860C9
:1030E00003B0704780B582B000200190FDF7C4FBAB
:1030F000FFF70AFFFFF75CFAFFF7FEFAFFF7D2FAD5
:10310000FFE740F25C30C2F2000040F2C031C2F290
:1031100000010122FFF7A0F8F3E7F1EE100A4FF6E5
:10312000FF71C0F2C03120EA010040F04070E1EED2
:10313000100A7047000000000000000001020304B4
:103140000607080902030405060708090A0B0C0D07
:103150000E0F10100102030405060708090A0B0CE4
:103160000D0E0F1088310008000000201000000034
:10317000C40100089831000810000020B8090000C0
:10318000E00100080000000000127A0001000000C9
:08319000100000000000000027
:040000050800018965
:00000001FF
